:100000000C9468000C9490000C9490000C94900058
:100010000C9490000C9490000C9490000C94900020
:100020000C9490000C9490000C9490000C94900010
:100030000C9490000C9490000C9490000C94900000
:100040000C94A6050C9490000C9474050C944E0529
:100050000C9490000C9490000C9490000C949000E0
:100060000C94F0050C94900000000000250028007E
:100070002B00040404040404040402020202020229
:10008000030303030303010204081020408001025C
:1000900004081020010204081020000000080002DB
:1000A00001000003040700000000000000003230DF
:1000B0003A35353A3133004F6374203232203230D2
:1000C0003230001F1C1F1E1F1E1F1F1E1F1E1C075D
:1000D00011241FBECFEFD8E0DEBFCDBF23E0A8EADA
:1000E000B1E001C01D92A431B207E1F711E0A0E038
:1000F000B1E0E8E2F5E102C005900D92A83AB1073F
:10010000D9F710E0C8E6D0E004C02197FE010E94B4
:100110008C0AC736D107C9F70E9455070C94920A7A
:100120000C94000008950895AF92BF92CF92DF9291
:10013000EF92FF920F931F93CF93DF936C017B019C
:100140008B01040F151FEB015E01AE18BF08C0172D
:10015000D10759F06991D601ED91FC910190F081A0
:10016000E02DC6010995892B79F7C501DF91CF9163
:100170001F910F91FF90EF90DF90CF90BF90AF90C5
:100180000895FC01538D448D252F30E0842F90E09D
:10019000821B930B541710F0CF9608950197089582
:1001A000FC01918D828D981761F0A28DAE0FBF2F4B
:1001B000B11D5D968C91928D9F5F9F73928F90E0A1
:1001C00008958FEF9FEF0895FC01918D828D981710
:1001D00031F0828DE80FF11D858D90E008958FEF4D
:1001E0009FEF0895FC01918D228D892F90E0805C16
:1001F0009F4F821B91098F73992708958BE692E098
:100200000E94F20021E0892B09F420E0822F08955A
:1002100080E090E0892B29F00E94FE0081110C946F
:1002200000000895FC01A48DA80FB92FB11DA35A99
:10023000BF4F2C91848D90E001968F739927848F06
:10024000A689B7892C93A089B1898C918370806429
:100250008C93938D848D981306C00288F389E02DCA
:1002600080818F7D80830895EF92FF920F931F937B
:10027000CF93DF93EC0181E0888F9B8D8C8D981359
:100280001AC0E889F989808185FF15C09FB7F89465
:10029000EE89FF896083E889F989808183708064B1
:1002A00080839FBF81E090E0DF91CF911F910F91FC
:1002B000FF90EF900895F62E0B8D10E00F5F1F4F0B
:1002C0000F731127E02E8C8D8E110CC00FB607FC1A
:1002D000FACFE889F989808185FFF5CFCE010E94A8
:1002E0001201F1CFEB8DEC0FFD2FF11DE35AFF4F03
:1002F000F0829FB7F8940B8FEA89FB898081806236
:10030000CFCF682F8BE692E00C943401CF93DF932C
:10031000EC01888D8823B9F0AA89BB89E889F9891D
:100320008C9185FD03C0808186FD0DC00FB607FC52
:10033000F7CF8C9185FFF2CF808185FFEDCFCE0185
:100340000E941201E9CFDF91CF91089590E0FC0166
:10035000E656FF4F2491FC01EA57FF4F3491FC0110
:10036000EE58FF4FE491EE23C9F0222339F02330F9
:1003700001F1A8F4213019F1223029F1F0E0EE0F5B
:10038000FF1FE859FF4FA591B4918FB7F894EC91F6
:10039000611126C030953E233C938FBF08952730CE
:1003A000A9F02830C9F0243049F7809180008F7D72
:1003B00003C0809180008F7780938000DFCF84B569
:1003C0008F7784BDDBCF84B58F7DFBCF8091B0006C
:1003D0008F778093B000D2CF8091B0008F7DF9CF1E
:1003E0003E2BDACF3FB7F8948091F1019091F20162
:1003F000A091F301B091F40126B5A89B05C02F3F51
:1004000019F00196A11DB11D3FBFBA2FA92F982F3A
:100410008827BC01CD01620F711D811D911D42E035
:10042000660F771F881F991F4A95D1F7089520916D
:10043000C901260F3327331F21323105ECF42091F7
:100440004102FC0190E080E0243069F082E00895F0
:10045000A091C9012191AC0147555E4FA40FB52F62
:10046000B11D2C930196861798F38091C901680FEE
:100470006093C90180E0089581E0089510924102DF
:1004800081E08093400210921B0261E082E10E94B1
:10049000A60161E083E10E94A601E9EBF0E0808122
:1004A0008E7F808380818D7F808388E48093B800F5
:1004B00085E48093BC000895CF93DF9391E09093FF
:1004C000A8018823B9F0C091B800D091BA008091FA
:1004D000BC008A7B8093BC0060E082E10E94A601A0
:1004E00060E083E10E94A6010E943E02D093BA0020
:1004F000C093B800DF91CF9108958F929F92AF92F1
:10050000BF92CF92DF92EF92FF920F931F93CF9300
:10051000DF93D0916A02D13208F0D7C0182FC09172
:1005200069020E94F2016B017C01809141028111FC
:100530006BC082E080934102109340028FEF809362
:100540003F0210923E02D0933D02A9E4B2E0EDE1F9
:10055000F2E080E0D81391C010921C0280911C023E
:10056000CC0FC82BC0931C0280911B02813009F074
:1005700088C010921B020E94F2016B017C018091E5
:100580001C028093BB008091430290914402A09191
:100590004502B0914602892B8A2B8B2BA1F00E9439
:1005A000F2010091430210914402209145023091E2
:1005B00046026C197D098E099F090617170728073F
:1005C000390708F442C08091BC0083FDD8CF85EC88
:1005D0008093BC000E94F2016B017C01809141027A
:1005E000823009F450C080913F028F3F09F46FC000
:1005F00080913F02803209F46CC080913F028033C9
:1006000009F469C084E026C08091430290914402BD
:10061000A0914502B0914602892B8A2B8B2B09F4BD
:1006200084CF0E94F2018090430290904402A090F7
:100630004502B09046026C197D098E099F09861605
:100640009706A806B90608F070CF809142020E9472
:100650005C0285E01092480210926A0210924702F2
:10066000DF91CF911F910F91FF90EF90DF90CF908E
:10067000BF90AF909F908F9008959D9191938F5FC1
:1006800069CF85EEA5CF8091430290914402A0915D
:100690004502B0914602892B8A2B8B2B09F49ECF01
:1006A0000E94F20100914302109144022091450200
:1006B000309146026C197D098E099F0906171707AC
:1006C0002807390708F08ACFC0CF81E0C3CF80E088
:1006D000C1CF82E0BFCF83E0BDCFCF92DF92EF9258
:1006E000FF920F931F93CF93DF93D82FC62F6132C2
:1006F00008F098C00E94F2016B017C0180914102D8
:1007000081116BC081E080934102809340029FEF92
:1007100090933F0210923E029C0F90933D02809373
:100720001C0280911C02DD0FD82BD0931C028091FB
:100730001B02813009F078C010921B020E94F20166
:100740006B017C0180911C028093BB00809143026D
:1007500090914402A0914502B0914602892B8A2BC8
:100760008B2BA1F00E94F2010091430210914402F0
:1007700020914502309146026C197D098E099F092E
:10078000061717072807390708F448C08091BC00EE
:1007900083FDD8CF85EC8093BC000E94F2016B01F1
:1007A0007C0180914102813009F440C080913E0279
:1007B0008C1710F4C0913E02EDE1F2E0ABEFB1E036
:1007C00080E08C1355C08C2FDF91CF911F910F913A
:1007D000FF90EF90DF90CF90089580914302909129
:1007E0004402A0914502B0914602892B8A2B8B2BA3
:1007F00009F484CF0E94F201009143021091440257
:1008000020914502309146026C197D098E099F099D
:10081000061717072807390708F070CF80914202A2
:100820000E945C02C0E0CFCF85EEB5CF809143023D
:1008300090914402A0914502B0914602892B8A2BE7
:100840008B2B09F4AECF0E94F2010091430210916C
:10085000440220914502309146026C197D098E09AF
:100860009F09061717072807390708F09ACFD6CF30
:1008700091919D938F5FA5CF0895E091FA018091AA
:10088000F901E81730F4F0E0E550FE4F808190E088
:1008900008958FEF9FEF08959091FA018091F901EB
:1008A0002FEF3FEF981748F4E92FF0E0E550FE4FA7
:1008B000208130E09F5F9093FA01C90108958091F3
:1008C000F9019091FA01891B990B0895CF92DF925B
:1008D000EF92FF920F931F93CF93DF937C01CB0195
:1008E0008A0120914702222389F0EB016B01C40E9B
:1008F000D51ECC15DD0569F06991D701ED91FC910C
:100900000190F081E02DC7010995F3CF642F0E947B
:100910001702C801DF91CF911F910F91FF90EF90C7
:10092000DF90CF900895CF93DF931F92CDB7DEB7BE
:100930006983209147022223F9F020916A02203234
:1009400058F021E030E0FC013383228390E080E026
:100950000F90DF91CF91089580914802E82FF0E049
:10096000E75BFD4F998190838F5F8093480280936E
:100970006A0281E090E0ECCF61E0CE0101960E9436
:100980001702F7CF90E080E00895FC01019000206D
:10099000E9F73197AF01481B590BBC018BE692E098
:1009A0000C9494008F929F92AF92BF920F931F93DB
:1009B000CF93DF93CDB7DEB7A1970FB6F894DEBF24
:1009C0000FBECDBF19A2423008F44AE08E010F5D80
:1009D0001F4F842E912CB12CA12CA50194010E94B3
:1009E0006A0AE62FB901CA01EA30F4F4E05DD801E1
:1009F000EE938D01232B242B252B79F790E080E0BB
:100A0000109719F0CD010E94C504A1960FB6F89475
:100A1000DEBF0FBECDBFDF91CF911F910F91BF9071
:100A2000AF909F908F900895E95CE1CF85ED809322
:100A3000BC008091430290914402A0914502B09184
:100A400046020796A11DB11D23E0B695A79597957F
:100A500087952A95D1F72091BC0024FD03C0109200
:100A60004102089540914302509144026091450231
:100A700070914602452B462B472B69F30097A10541
:100A8000B10541F025E32A95F1F700000197A1098E
:100A9000B109E1CF809142020C945C021F920F9247
:100AA0000FB60F9211242F933F934F935F936F9341
:100AB0007F938F939F93AF93BF93EF93FF938BE6B7
:100AC00092E00E941201FF91EF91BF91AF919F912F
:100AD0008F917F916F915F914F913F912F910F90E7
:100AE0000FBE0F901F9018951F920F920FB60F9286
:100AF00011242F938F939F93EF93FF93E0917B02A9
:100B0000F0917C028081E0918102F091820282FD6D
:100B10001BC09081809184028F5F8F73209185022A
:100B2000821741F0E0918402F0E0E559FD4F958F86
:100B300080938402FF91EF919F918F912F910F905D
:100B40000FBE0F901F9018958081F4CF1F920F92C7
:100B50000FB60F9211242F933F938F939F93AF93D0
:100B6000BF938091ED019091EE01A091EF01B091C2
:100B7000F0013091EC0123E0230F2D3758F5019659
:100B8000A11DB11D2093EC018093ED019093EE0126
:100B9000A093EF01B093F0018091F1019091F201E7
:100BA000A091F301B091F4010196A11DB11D8093B4
:100BB000F1019093F201A093F301B093F401BF917E
:100BC000AF919F918F913F912F910F900FBE0F90FA
:100BD0001F90189526E8230F0296A11DB11DD2CFB4
:100BE0001F920F920FB60F9211242F933F934F93A2
:100BF0005F936F937F938F939F93AF93BF93EF9385
:100C0000FF938091B900887F803609F44AC0F0F5DF
:100C1000883209F4A7C018F5803109F49BC0B8F4F4
:100C2000882309F4F9C0883009F494C0FF91EF914A
:100C3000BF91AF919F918F917F916F915F914F91F4
:100C40003F912F910F900FBE0F901F9018958831F4
:100C500009F488C0803251F780933F0214C0803479
:100C600009F49DC040F48033B9F38833F9F68093DA
:100C70003F0285ECB0C0803509F485C0883509F4A1
:100C800096C0883499F60E941605D0CF883909F4A9
:100C90008CC038F5883729F050F4883611F0803749
:100CA00029F683E0809341021092EB0157C0883807
:100CB00009F47BC0803919F0803809F0B7CF8091F2
:100CC000EB01803208F071C0E091EB0181E08E0F02
:100CD0008093EB018091BB00F0E0E553FE4F8083F1
:100CE0003DC0803B39F0E0F4803A09F479C0883A9D
:100CF00009F09CCF84E0809341021092CA011092C7
:100D0000C901E091F701F091F80109958091C901BD
:100D100081110FC081E08093C9011092A90109C01F
:100D2000803C09F4A6CF883C09F4A3CF883B09F0A6
:100D30007DCFE091CA0181E08E0F8093CA01F0E07F
:100D4000E755FE4F80818093BB009091CA0180914E
:100D5000C90129C080911C028093BB0085EC80935F
:100D6000BC0064CF90913E0280913D02981758F5E7
:100D7000E0913E0281E08E0F80933E02F0E0E35E60
:100D8000FD4F8081E9CFE0913E0281E08E0F80939C
:100D90003E028091BB00F0E0E35EFD4F80839091C6
:100DA0003E0280913D029817C8F285E8D8CFE091C5
:100DB0003E0281E08E0F80933E028091BB00F0E006
:100DC000E35EFD4F80838091400281115CCF81E022
:100DD00080931B0284EA8093BC001092410226CFCC
:100DE00085EC8093BC00109241028091EB0180322F
:100DF00030F4E091EB01F0E0E553FE4F108260919A
:100E0000EB0170E0E091F501F091F6018BEC91E0DF
:100E100009951092EB010ACF10923F0234CFFC01EA
:100E2000908190539A3008F090E0818180532AE0BD
:100E3000929F800D11240895EBE6F2E01382128256
:100E400088EE93E0A0E0B0E084839583A683B78327
:100E500028E531E03183208325EC30E03587248795
:100E600024EC30E03787268720EC30E0318B208B74
:100E700021EC30E0338B228B22EC30E0358B248B5D
:100E800026EC30E0378B268B118E128E138E148E4B
:100E9000E8E0F3E01382128284839583A683B7830C
:100EA0008AE691E0918380830895CF93DF93CDB755
:100EB000DEB72B970FB6F894DEBF0FBECDBF789488
:100EC00084B5826084BD84B5816084BD85B582604F
:100ED00085BD85B5816085BD80916E008160809300
:100EE0006E00109281008091810082608093810069
:100EF0008091810081608093810080918000816079
:100F0000809380008091B10084608093B1008091D3
:100F1000B00081608093B00080917A0084608093FB
:100F20007A0080917A00826080937A0080917A00C2
:100F3000816080937A0080917A00806880937A0043
:100F40001092C100E0917B02F0917C0282E08083EC
:100F5000E0917B02F0917C021082E0917702F091A7
:100F600078021082E0917902F0917A0280E1808328
:100F700010928302E0917F02F091800286E08083EC
:100F8000E0917D02F0917E02808180618083E0911A
:100F90007D02F0917E02808188608083E0917D02F5
:100FA000F0917E02808180688083E0917D02F091E3
:100FB0007E0280818F7D80831092FA011092F90168
:100FC0001092480210926A020E943E0282E990E06A
:100FD0009093F8018093F70183E990E09093F601F4
:100FE0008093F50101E00093470288E6809369024F
:100FF00081E00E947D0281114EC000934702109251
:10100000480210926A0260E088E093E00E94930434
:1010100081E00E947D0261E088E60E946D0380937A
:10102000F90188E093E00E944C0487FFC9C08DE875
:1010300091E00E94C5048AE891E00E94C5044BE05B
:1010400050E067EB70E0CE0101960E94410ACE01AC
:101050000A960E940F07082FE981E154E33108F056
:101060002CC00E2E000CFF0BE85CF74F0C948C0A82
:10107000AB095D085D08BF095D08C1095D085D0831
:101080005D0854085D085D08B209BD09BB095D082B
:101090005D085D08B90988E791E00E94C5048AE807
:1010A00091E00E94C504FFCF8A8111E0813629F0CA
:1010B0008B8116E08E3609F017E0CE0105960E946E
:1010C0000F07E82E48E050E06EEA70E0CE0101968E
:1010D0000E94410ACE0101960E940F07D82ECE0130
:1010E00004960E940F07C82ECE0107960E940F0794
:1010F000B82E81E08093470288E6809369021092BF
:10110000480210926A0260E088E093E00E94930433
:101110008AE0F82E8B2D6F2D0E944A0A682F660FE9
:10112000680F660F6B0D88E093E00E9493048C2D8E
:101130006F2D0E944A0A682F660F680F660F6C0DAC
:1011400088E093E00E9493048D2D6F2D0E944A0A3F
:10115000682F660F680F660F6D0D88E093E00E94A0
:10116000930460E088E093E00E9493048E2D6F2D3D
:101170000E944A0A682F660F680F660F6E0D88E09E
:1011800093E00E949304812F6F2D0E944A0A682FDA
:10119000660F680F660F610F88E093E00E9493046A
:1011A000802F6F2D0E944A0A682F660F680F660F06
:1011B000600F88E093E00E94930481E00E947D022A
:1011C00017E0A12EB12C00E0802E00E0902E21E04F
:1011D0002093470248E64093690210924802109219
:1011E0006A0260E088E093E00E94930481E00E943C
:1011F0007D0267E088E60E946D031092FA018093F9
:10120000F90188E093E00E944C048F77282F30E0AA
:1012100064E0359527956A95E1F7922F990F990F1C
:10122000522E591A550C580E88E093E00E944C0437
:101230009C0174E0359527957A95E1F72F70332757
:10124000922F990F990F422E491A440C480E88E0AC
:1012500093E00E944C049C01E4E035952795EA95C3
:10126000E1F72F703327922F990F990F322E391AE9
:10127000330C380E88E093E00E944C0488E093E041
:101280000E944C049C01F4E035952795FA95E1F70E
:101290002F703327922F990F990F122F191B110FAF
:1012A000180F88E093E00E944C049C01A4E035955F
:1012B0002795AA95E1F72F703327922F990F990F51
:1012C000222E291A220C280E88E093E00E944C045A
:1012D0009C01B4E035952795BA95E1F72F70332737
:1012E000922F990F990F022F091B000F080F602EE4
:1012F000712C730150E3E51A58EFF50AB7010F2C72
:10130000000C880B990B4AE00E94D2048FE20E94E5
:101310008101622D70E090E080E04AE00E94D204FA
:101320008FE20E948101612F70E090E080E04AE04E
:101330000E94D20481EA91E00E94C504212F30E08E
:10134000E3ECF0E081E08215F0F49491290F311D77
:101350008F5F3196F8CF8B8114E0823709F4ADCEE0
:1013600018E0ABCE8B8113E0823709F4A6CE15E0EE
:10137000A4CE19E0A2CE1AE0A0CE1BE09ECE1CE0C7
:101380009CCE12E09ACE82E0821520F4037011F414
:101390002F5F3F4FC7018D5C974096958795969537
:1013A00087954DE651E0649E7001659EF00C749E39
:1013B000F00C11248E0D9F1D0596820F931FB50111
:1013C0000E94560A5CE0589F9001599F300D1124ED
:1013D000C90180509F4F0E94C50484EA91E00E9499
:1013E000C504632D70E090E080E04AE00E94D204E2
:1013F0008AE30E948101642D70E090E080E04AE081
:101400000E94D2048AE30E948101652D70E090E081
:1014100080E04AE00E94D2048AE891E00E94C5047C
:101420000E94F2012B013C0158EEC52E53E0D52E4F
:10143000E12CF12C0E94F2016419750986099709C3
:10144000683E734081059105A8F381E0C81AD10870
:10145000E108F10828EE420E23E0521E611C711CC7
:10146000C114D104E104F10429F78114910409F4B1
:10147000AECE0E94FE00882309F4A9CE0E9400008F
:10148000A6CEFB01DC0102C005900D9241505040F8
:10149000D8F70895991B79E004C0991F961708F0B2
:1014A000961B881F7A95C9F780950895AA1BBB1BC8
:1014B00051E107C0AA1FBB1FA617B70710F0A61B54
:1014C000B70B881F991F5A95A9F780959095BC0175
:1014D000CD010895A1E21A2EAA1BBB1BFD010DC070
:1014E000AA1FBB1FEE1FFF1FA217B307E407F507D4
:1014F00020F0A21BB30BE40BF50B661F771F881FB0
:10150000991F1A9469F760957095809590959B0145
:10151000AC01BD01CF010895EE0FFF1F0590F491BE
:08152000E02D0994F894FFCFBF
:1015280053756E6461790000000000004D6F6E64B1
:1015380061790000000000005475657364617900EA
:10154800000000005765646E6573646179000000EF
:1015580054687572736461790000000046726964AA
:10156800617900000000000053617475726461794C
:10157800000000000000000034019400C100860152
:10158800F200D000E4000000000093046604C204E6
:101598003C045F044C043D04436F756C646E27740F
:1015A8002066696E6420525443000D0A0052544369
:1015B800206973204E4F542072756E6E696E6721D4
:0815C80000202800292000008A
:00000001FF
